:020000040800F2
:1000000028080020290200083102000833020008F5
:10001000350200083702000839020008000000001D
:100020000000000000000000000000003B0200088B
:100030003D02000800000000FF0200084102000825
:10004000430200084302000843020008430200087C
:10005000430200084302000843020008430200086C
:10006000430200084302000843020008430200085C
:10007000430200084302000843020008430200084C
:10008000430200084302000843020008430200083C
:10009000430200084302000843020008430200082C
:1000A000430200084302000843020008430200081C
:1000B000430200084302000843020008430200080C
:1000C00043020008430200084302000843020008FC
:1000D00043020008430200084302000843020008EC
:1000E00043020008430200084302000843020008DC
:1000F00043020008430200084302000843020008CC
:1001000043020008430200084302000843020008BB
:1001100043020008430200084302000843020008AB
:10012000430200084302000843020008430200089B
:10013000430200084302000843020008430200088B
:10014000430200084302000843020008430200087B
:10015000430200084302000843020008430200086B
:10016000430200084302000843020008430200085B
:100170004302000843020008430200080000000098
:10018000430200084302000800F002F800F03CF8C7
:100190000AA090E8000C82448344AAF10107DA45E2
:1001A00001D100F031F8AFF2090EBAE80F0013F0F8
:1001B000010F18BFFB1A43F0010318472804000081
:1001C00048040000103A24BF78C878C1FAD8520712
:1001D00024BF30C830C144BF04680C6070470000C1
:1001E0000023002400250026103A28BF78C1FBD840
:1001F000520728BF30C148BF0B6070471FB500F0E1
:10020000EBF91FBD10B510BD00F031F81146FFF736
:10021000F5FF00F0AFF900F04FF803B4FFF7F2FF7D
:1002200003BC00F057F80000094880470948004720
:10023000FEE7FEE7FEE7FEE7FEE7FEE7FEE7FEE796
:10024000FEE7FEE704480549054A064B70470000F3
:10025000BD040008890100082802002028080020A9
:100260002804002028040020704770477047754616
:1002700000F02CF8AE4605006946534620F0070012
:10028000854618B020B5FFF7DDFFBDE820404FF0F0
:1002900000064FF000074FF000084FF0000B21F070
:1002A0000701AC46ACE8C009ACE8C009ACE8C0093D
:1002B000ACE8C0098D46704710B50446AFF3008026
:1002C0002046BDE81040FFF7A8BF00000048704777
:1002D000C401002001491820ABBEFEE72600020041
:1002E0007047000011484FF0FF010170002080F3BB
:1002F00009880F484FF08051016062B6FEE772B680
:10030000EFF3098020B120E9F00F0A49096808607D
:10031000084809490A6802601068B0E8F00F80F3E5
:1003200009884EF0040E62B6704700BF22ED00E06F
:1003300004ED00E0180000201C00002000B503467A
:10034000002005490870054908600549086000F06B
:10035000A5F80020188000BD200000201800002013
:100360001C0000200948006809490968884204D136
:10037000064880680749086003E0044800680549AA
:1003800008604FF08050044908607047C4000020A6
:10039000180000201C00002004ED00E010B5044609
:1003A0000748007848B90748006807490860FFF720
:1003B00099FF43F69920208001E00120208010BDA4
:1003C00020000020C40000201C0000202DE9F04780
:1003D00004460D4616461F46DDE9088943463A465F
:1003E0003146284600F00AF88246C4F800A0C4F856
:1003F00004800020A9F80000BDE8F08770B504462D
:1004000002EB83004FF08076051F28462E60051F03
:1004100028462C604FF01436051F28462E604FF0FA
:100420001236051F28462E604FF00336051F28465A
:100430002E604FF00236051F28462E607610051FED
:1004400028462E60051F284629604FF01136051FEB
:1004500028462E604FF01036051F28462E604FF0BC
:100460000936051F28462E604FF00836051F28461E
:100470002E604FF00736051F28462E604FF00636D7
:10048000051F28462E604FF00536051F28462E60B2
:100490004FF00436051F28462E6070BD002007E08F
:1004A000054A02EBC00100220A604A60421CD0B239
:1004B0002028F5D370470000C400002014480068CD
:1004C00040F47000124908601248006840F00100D2
:1004D0001049086000200F49083108600D48006885
:1004E0000D4908400B4908600C48091D0860081FA9
:1004F000006820F48020091F0860002005490C31A5
:1005000008604FF0006002498039086070470000C1
:1005100088ED00E000380240FFFFF6FE10300024B6
:1005200000BF012006490860642000F01DF800208B
:1005300003490860642000F017F8FFF713FFF0E7A5
:100540000000002000BF012006490860642000F080
:100550000BF8002003490860642000F005F8FFF75D
:1005600001FFF0E70400002000E0401E0028FCD15D
:10057000704770470EB5FFF7FCFF02A8FFF7DEFEDD
:1005800002A814210D4B0022CDE900100C490D48A2
:10059000FFF71CFF02A814210B4B0022CDE900102D
:1005A0000A490B48FFF712FF06480A490860084845
:1005B000886002A8FFF7F2FE00200EBD2400002094
:1005C00021050008080000207400002045050008EF
:1005D00010000020C40000204FF04070E1EE100A2F
:1005E00070470000040600080000002024000000FE
:1005F000C4010008280600082400002004080000A8
:10060000E001000800000000000000000000000001
:1006100000000000000000000000000000000000DA
:080620000000000000000000D2
:040000050800018965
:00000001FF
